{
  "contractName": "ICO",
  "abi": [
    {
      "constant": true,
      "inputs": [],
      "name": "tokensSold",
      "outputs": [
        {
          "name": "",
          "type": "uint256"
        }
      ],
      "payable": false,
      "stateMutability": "view",
      "type": "function"
    },
    {
      "constant": true,
      "inputs": [],
      "name": "assignedTokens",
      "outputs": [
        {
          "name": "",
          "type": "uint256"
        }
      ],
      "payable": false,
      "stateMutability": "view",
      "type": "function"
    },
    {
      "constant": true,
      "inputs": [],
      "name": "tokenCountForSale",
      "outputs": [
        {
          "name": "",
          "type": "uint256"
        }
      ],
      "payable": false,
      "stateMutability": "view",
      "type": "function"
    },
    {
      "constant": true,
      "inputs": [],
      "name": "valueOfToken",
      "outputs": [
        {
          "name": "",
          "type": "uint256"
        }
      ],
      "payable": false,
      "stateMutability": "view",
      "type": "function"
    },
    {
      "inputs": [
        {
          "name": "_TokenManager",
          "type": "address"
        },
        {
          "name": "_valueOfToken",
          "type": "uint256"
        }
      ],
      "payable": false,
      "stateMutability": "nonpayable",
      "type": "constructor"
    },
    {
      "constant": false,
      "inputs": [],
      "name": "checkTokensWithContract",
      "outputs": [
        {
          "name": "",
          "type": "uint256"
        }
      ],
      "payable": false,
      "stateMutability": "nonpayable",
      "type": "function"
    },
    {
      "constant": false,
      "inputs": [
        {
          "name": "numberOfCoinsBought",
          "type": "uint256"
        }
      ],
      "name": "buyCoin",
      "outputs": [
        {
          "name": "",
          "type": "bool"
        }
      ],
      "payable": true,
      "stateMutability": "payable",
      "type": "function"
    },
    {
      "constant": false,
      "inputs": [
        {
          "name": "user",
          "type": "address"
        }
      ],
      "name": "checkBalance",
      "outputs": [
        {
          "name": "",
          "type": "uint256"
        }
      ],
      "payable": false,
      "stateMutability": "nonpayable",
      "type": "function"
    },
    {
      "constant": false,
      "inputs": [
        {
          "name": "user",
          "type": "address"
        }
      ],
      "name": "checkSenderBalance",
      "outputs": [
        {
          "name": "",
          "type": "uint256"
        }
      ],
      "payable": false,
      "stateMutability": "nonpayable",
      "type": "function"
    }
  ],
  "bytecode": "0x60806040526201869f60025534801561001757600080fd5b50604051604080610a938339810180604052604081101561003757600080fd5b81019080805190602001909291908051906020019092919050505080600181905550816000806101000a81548173ffffffffffffffffffffffffffffffffffffffff021916908373ffffffffffffffffffffffffffffffffffffffff16021790555060003090506000809054906101000a900473ffffffffffffffffffffffffffffffffffffffff1673ffffffffffffffffffffffffffffffffffffffff1663f63852f3826002546040518363ffffffff167c0100000000000000000000000000000000000000000000000000000000028152600401808373ffffffffffffffffffffffffffffffffffffffff1673ffffffffffffffffffffffffffffffffffffffff16815260200182815260200192505050602060405180830381600087803b15801561016457600080fd5b505af1158015610178573d6000803e3d6000fd5b505050506040513d602081101561018e57600080fd5b8101908080519060200190929190505050506000809054906101000a900473ffffffffffffffffffffffffffffffffffffffff1673ffffffffffffffffffffffffffffffffffffffff166370a08231306040518263ffffffff167c0100000000000000000000000000000000000000000000000000000000028152600401808273ffffffffffffffffffffffffffffffffffffffff1673ffffffffffffffffffffffffffffffffffffffff168152602001915050602060405180830381600087803b15801561025c57600080fd5b505af1158015610270573d6000803e3d6000fd5b505050506040513d602081101561028657600080fd5b81019080805190602001909291905050506004819055505050506107e4806102af6000396000f3fe608060405260043610610088576000357c010000000000000000000000000000000000000000000000000000000090048063117e90a81461008d57806311d67fc8146100f2578063518ab2a81461011d5780635f5152261461014857806361354128146101ad57806387792574146101d8578063aeb6fd8b1461021e578063e10ea75314610249575b600080fd5b34801561009957600080fd5b506100dc600480360360208110156100b057600080fd5b81019080803573ffffffffffffffffffffffffffffffffffffffff169060200190929190505050610274565b6040518082815260200191505060405180910390f35b3480156100fe57600080fd5b50610107610373565b6040518082815260200191505060405180910390f35b34801561012957600080fd5b50610132610476565b6040518082815260200191505060405180910390f35b34801561015457600080fd5b506101976004803603602081101561016b57600080fd5b81019080803573ffffffffffffffffffffffffffffffffffffffff16906020019092919050505061047c565b6040518082815260200191505060405180910390f35b3480156101b957600080fd5b506101c261057c565b6040518082815260200191505060405180910390f35b610204600480360360208110156101ee57600080fd5b8101908080359060200190929190505050610582565b604051808215151515815260200191505060405180910390f35b34801561022a57600080fd5b506102336107ac565b6040518082815260200191505060405180910390f35b34801561025557600080fd5b5061025e6107b2565b6040518082815260200191505060405180910390f35b60008060009054906101000a900473ffffffffffffffffffffffffffffffffffffffff1673ffffffffffffffffffffffffffffffffffffffff166370a08231336040518263ffffffff167c0100000000000000000000000000000000000000000000000000000000028152600401808273ffffffffffffffffffffffffffffffffffffffff1673ffffffffffffffffffffffffffffffffffffffff168152602001915050602060405180830381600087803b15801561033257600080fd5b505af1158015610346573d6000803e3d6000fd5b505050506040513d602081101561035c57600080fd5b810190808051906020019092919050505050919050565b6000806000809054906101000a900473ffffffffffffffffffffffffffffffffffffffff1673ffffffffffffffffffffffffffffffffffffffff166370a08231306040518263ffffffff167c0100000000000000000000000000000000000000000000000000000000028152600401808273ffffffffffffffffffffffffffffffffffffffff1673ffffffffffffffffffffffffffffffffffffffff168152602001915050602060405180830381600087803b15801561043257600080fd5b505af1158015610446573d6000803e3d6000fd5b505050506040513d602081101561045c57600080fd5b810190808051906020019092919050505090508091505090565b60035481565b60008060009054906101000a900473ffffffffffffffffffffffffffffffffffffffff1673ffffffffffffffffffffffffffffffffffffffff166370a08231836040518263ffffffff167c0100000000000000000000000000000000000000000000000000000000028152600401808273ffffffffffffffffffffffffffffffffffffffff1673ffffffffffffffffffffffffffffffffffffffff168152602001915050602060405180830381600087803b15801561053a57600080fd5b505af115801561054e573d6000803e3d6000fd5b505050506040513d602081101561056457600080fd5b81019080805190602001909291905050509050919050565b60045481565b6000816000809054906101000a900473ffffffffffffffffffffffffffffffffffffffff1673ffffffffffffffffffffffffffffffffffffffff166370a08231306040518263ffffffff167c0100000000000000000000000000000000000000000000000000000000028152600401808273ffffffffffffffffffffffffffffffffffffffff1673ffffffffffffffffffffffffffffffffffffffff168152602001915050602060405180830381600087803b15801561064157600080fd5b505af1158015610655573d6000803e3d6000fd5b505050506040513d602081101561066b57600080fd5b81019080805190602001909291905050501015151561068957600080fd5b6000809054906101000a900473ffffffffffffffffffffffffffffffffffffffff1673ffffffffffffffffffffffffffffffffffffffff1663a9059cbb33846040518363ffffffff167c0100000000000000000000000000000000000000000000000000000000028152600401808373ffffffffffffffffffffffffffffffffffffffff1673ffffffffffffffffffffffffffffffffffffffff16815260200182815260200192505050602060405180830381600087803b15801561074d57600080fd5b505af1158015610761573d6000803e3d6000fd5b505050506040513d602081101561077757600080fd5b8101908080519060200190929190505050151561079357600080fd5b8160036000828254019250508190555060019050919050565b60025481565b6001548156fea165627a7a723058208a65b7e48f9ba2ce8d7cbb546e17b8886f118ce1fdeed156a589b71ce21e6e2e0029",
  "source": "pragma solidity 0.5.1;\n\nimport \"./MyToken.sol\";\n\n//reference for github open-source Math library used - https://github.com/abdk-consulting/abdk-libraries-solidity/blob/master/ABDKMath64x64.sol\n\n//valueOfToken = 10000000000000000000 wei or 0.1 ether;\n\n//msg.value -> contains the value of ether sent in by the sender\n\ncontract ICO {\n\n\n\tMyToken TokenManager;\n\tuint256 public valueOfToken;\n\tuint256 public tokenCountForSale = 99999;\n\tuint256 public tokensSold;\n\tuint256 public assignedTokens;\n\n\tmapping(address => uint256) userTokens; // records the number of tokens bought by each user\n\n\tconstructor(MyToken _TokenManager, uint256 _valueOfToken) public{\n\t\tvalueOfToken = _valueOfToken;\n\t\tTokenManager = _TokenManager;\n\n\t\taddress ContractAddress = address(this);\n\t\t//Transfer the coins allocated for sale to this smartcontract\n\t\tTokenManager.initialiseFunds(ContractAddress, tokenCountForSale);\n\n\t\tassignedTokens = TokenManager.balanceOf(address(this));\n\t}\n\n\tfunction checkTokensWithContract() public returns(uint256){ //Checks the number of tokens left with the contract\n\t\tuint val = TokenManager.balanceOf(address(this));\n\t\treturn val;\n\t}\n\n\tfunction buyCoin(uint256 numberOfCoinsBought) public payable returns(bool){ //\n\n\t\t// require(Math.sub(Math.fromUInt(tokenCountForSale), Math.fromUInt(tokensSold)) >= Math.fromUInt(numberOfCoinsBought));\n\n\t\trequire(TokenManager.balanceOf(address(this)) >= numberOfCoinsBought);\n\t\t\n\t\t// require(Math.fromUInt(msg.value) == Math.mul(fromUInt(value), fromUInt(numberOfCoinsBought)));\n\n\t\trequire(TokenManager.transfer(msg.sender, numberOfCoinsBought));\n\n\t\ttokensSold += numberOfCoinsBought;\n\n\t\treturn true;\n\t}\n\n\tfunction checkBalance(address user) public returns(uint256){\n\n\t\treturn TokenManager.balanceOf(user);\n\n\t}\n\n\tfunction checkSenderBalance(address user) public returns(uint256){//Chceks the balance of the account which created this transaction\n\t\tTokenManager.balanceOf(msg.sender);\n\t}\n\t\n\n}",
  "sourcePath": "/Users/rakshit/Desktop/eggs-ip-blockchain-master/tokenCreation/contracts/ICO.sol",
  "compiler": {
    "name": "solc",
    "version": "0.5.1+commit.c8a2cb62.Emscripten.clang"
  },
  "schemaVersion": "3.4.3",
  "updatedAt": "2021-12-14T10:43:36.870Z",
  "networkType": "ethereum",
  "devdoc": {
    "methods": {}
  },
  "userdoc": {
    "methods": {}
  }
}